      |              |                 |              |                                                                                                         
CDON7YCDON7Y         08/18/2023 06:57:32               CHECK1         ShippingMgr    08_18                                  00000                   0000020001870000000187        111111111111                                                                                                                                                                                                                                                                                                                                                                                                                                                                                                                                                                                                                                                                                                                                                   X
CDON7Y00000108000000CDON7Y2000018       000000000000000000000Interstate Lakeland Lumber              800 Post Rd E                           George Tsionis                                                                                                                                                  00000000000                                                                                                                                                                                                                                                                                                                                                                 0000002070235000100018                                                                                                                                      X
CDON7Y00000208000000CDON7Y2005219       000000000000000000000Interstate Lakeland Lumber              800 Post Rd E                           George Tsionis                                                                                                                                                  00000000000                                                                                                                                                                                                                                                                                                                                                                 0000002070235000105219                                                                                                                                      X
CDON7Y00000308000000CDON7Y2007034       000000000000000000000Interstate Lakeland Lumber              800 Post Rd E                           George Tsionis                                                                                                                                                  00000000000                                                                                                                                                                                                                                                                                                                                                                 0000002070235000107034                                                                                                                                      X
CDON7Y00000405000000CDON7Y2010372       000000000000000000000Interstate Lakeland Lumber              800 Post Rd E                           George Tsionis                                                                                                                                                  00000000000                                                                                                                                                                                                                                                                                                                                                                 0000002070235000110372                                                                                                                                      X
CDON7Y00000509000000CDON7Y2000028       000000000000000000000Interstate + Lakeland Lumber            PO Box 4297                                                                                                                                                                                             00000000000                                                                                                                                                                                                                                                                                                                                                                 0000002070235000100028                                                                                                                                      X
CDON7Y00000609000000CDON7Y2002452       000000000000000000000Interstate + Lakeland Lumber            PO Box 4297                                                                                                                                                                                             00000000000                                                                                                                                                                                                                                                                                                                                                                 0000002070235000102452                                                                                                                                      X
CDON7Y00000709000000CDON7Y2005335       000000000000000000000Interstate + Lakeland Lumber            PO Box 4297                                                                                                                                                                                             00000000000                                                                                                                                                                                                                                                                                                                                                                 0000002070235000105335                                                                                                                                      X
CDON7Y00000809000000CDON7Y2007167       000000000000000000000Interstate + Lakeland Lumber            PO Box 4297                                                                                                                                                                                             00000000000                                                                                                                                                                                                                                                                                                                                                                 0000002070235000107167                                                                                                                                      X
CDON7Y00000907000000CDON7Y2009383       000000000000000000000Interstate + Lakeland Lumber            PO Box 4297                                                                                                                                                                                             00000000000                                                                                                                                                                                                                                                                                                                                                                 0000002070235000109383                                                                                                                                      X
CDON7Y00001009000000CDON7Y2000415       000000000000000000000Medline Industries Inc                  PO Box 382075                                                                                                                                                                                           00000000000                                                                                                                                                                                                                                                                                                                                                                 0000002070235000100415                                                                                                                                      X
CDON7Y00001105000000CDON7Y2002296       000000000000000000000Comcast                                 PO Box 70219                                                                                                                                                                                            00000000000                                                                                                                                                                                                                                                                                                                                                                 0000002070235000102296                                                                                                                                      X
CDON7Y00001205000000CDON7Y2007910       000000000000000000000Comcast                                 PO Box 70219                                                                                                                                                                                            00000000000                                                                                                                                                                                                                                                                                                                                                                 0000002070235000107910                                                                                                                                      X
CDON7Y00001308000000CDON7Y2002228       000000000000000000000Dc Health Link                          PO Box 97022                                                                                                                                                                                            00000000000                                                                                                                                                                                                                                                                                                                                                                 0000002070235000102228                                                                                                                                      X
CDON7Y00001407000000CDON7Y2000699       000000000000000000000H&m Usa                                 2020 Starita Rd                         H&M Usa                                                                                                                                                         00000000000                                                                                                                                                                                                                                                                                                                                                                 0000002070235000100699                                                                                                                                      X
CDON7Y00001507000000CDON7Y2006085       000000000000000000000Diocese Of Orlando                      PO Box 1800                             C/O Pension                                                                                                                                                     00000000000                                                                                                                                                                                                                                                                                                                                                                 0000002070235000106085                                                                                                                                      X
CDON7Y00001607000000CDON7Y2000429       000000000000000000000Diocese Of Orlando                      PO Box 1800                             C/O Pension                                                                                                                                                     00000000000                                                                                                                                                                                                                                                                                                                                                                 0000002070235000100429                                                                                                                                      X
CDON7Y00001707000000CDON7Y2003541       000000000000000000000Diocese Of Orlando                      PO Box 1800                             C/O Pension                                                                                                                                                     00000000000                                                                                                                                                                                                                                                                                                                                                                 0000002070235000103541                                                                                                                                      X
CDON7Y00001807000000CDON7Y2000892       000000000000000000000Unishippers                             751 North Dr                            Unishippers                             STE 3-4                                                                                                                 00000000000                                                                                                                                                                                                                                                                                                                                                                 0000002070235000100892                                                                                                                                      X
CDON7Y00001905000000CDON7Y2000826       000000000000000000000Xpo Logistics                           29559 Network Pl                                                                                                                                                                                        00000000000                                                                                                                                                                                                                                                                                                                                                                 0000002070235000100826                                                                                                                                      X
CDON7Y00002005000000CDON7Y2005225       000000000000000000000Xpo Logistics                           29559 Network Pl                                                                                                                                                                                        00000000000                                                                                                                                                                                                                                                                                                                                                                 0000002070235000105225                                                                                                                                      X
CDON7Y00002107000000CDON7Y2000274       000000000000000000000Fedex                                   PO Box 660481                           Fedex                                                                                                                                                           00000000000                                                                                                                                                                                                                                                                                                                                                                 0000002070235000100274                                                                                                                                      X
CDON7Y00002207000000CDON7Y2001726       000000000000000000000Arrive Logistics                        PO Box 207779                                                                                                                                                                                           00000000000                                                                                                                                                                                                                                                                                                                                                                 0000002070235000101726                                                                                                                                      X
CDON7Y00002307000000CDON7Y2000453       000000000000000000000Mouser Electronics Inc                  1000 N Main St                                                                                                                                                                                          00000000000                                                                                                                                                                                                                                                                                                                                                                 0000002070235000100453                                                                                                                                      X
CDON7Y00002407000000CDON7Y2003081       000000000000000000000Alco Usa, Llp                           2300 Woodforest Pkwy N Ste 250-421                                                                                                                                                                      00000000000                                                                                                                                                                                                                                                                                                                                                                 0000002070235000103081                                                                                                                                      X
CDON7Y00002506000000CDON7Y2007262       000000000000000000000Alco Usa, Llp                           2300 Woodforest Pkwy N Ste 250-421                                                                                                                                                                      00000000000                                                                                                                                                                                                                                                                                                                                                                 0000002070235000107262                                                                                                                                      X
CDON7Y00002609000000CDON7Y2001885       000000000000000000000Service Plus Mobile Engraving           7425 Heather Rd                                                                                                                                                                                         00000000000                                                                                                                                                                                                                                                                                                                                                                 0000002070235000101885                                                                                                                                      X
